:100000000C9472000C9493000C9493000C94930045
:100010000C9493000C9493000C9493000C94930014
:100020000C9493000C9493000C9493000C94930004
:100030000C9493000C9493000C9493000C949300F4
:100040000C9493000C9493000C9493000C949300E4
:100050000C9493000C9493000C9493000C949300D4
:100060000C9493000C9493000C9493000C949300C4
:100070000C9493000C9493000C9493000C949300B4
:100080000C9493000C9493000C9493000C949300A4
:100090000C9493000C9493000C9493000C94930094
:1000A0000C9493000C9493000C9493000C94930084
:1000B0000C9493000C9493000C9493000C94930074
:1000C0000C9493000C9493000C9493000C94930064
:1000D0000C9493000C9493000C9493000C94930054
:1000E0000C94930011241FBECFEFD1E2DEBFCDBF31
:1000F00000E00CBF12E0A0E0B2E0E6EFF0E100E0CB
:100100000BBF02C007900D92AA30B107D9F712E0D9
:10011000AAE0B2E001C01D92A831B107E1F70E9448
:1001200098050C9479080C94000086E69EE00197EF
:10013000F1F700004098419880E388B9429AEFEFC8
:10014000F7E43197F1F700C000004298E6E6FEE0E0
:100150003197F1F700004098419888B9429AEFEF43
:10016000F7E43197F1F700C000004298E6E6FEE0C0
:100170003197F1F700004098419888B9429A8FEF83
:1001800097E40197F1F700C000004298E6E6FEE030
:100190003197F1F700004098419880E288B9429A7F
:1001A0008FEF97E40197F1F700C00000429808959F
:1001B00098B19F7098B998B1282F207F922B98B949
:1001C00040984198429AEFEFF7E43197F1F700C079
:1001D0000000429898B19F7098B998B18295807F3D
:1001E000892B88B940984198429A8FEF97E40197FC
:1001F000F1F700C00000429808950E94950086E63D
:100200009EE00197F1F7000088E20E94D80081E0AB
:100210000E94D80086E00E94D8008EE00E94D8009C
:1002200080E80E94D800089598B19F7098B998B15D
:10023000282F207F922B98B9409A4198429AEFEF4D
:10024000F7E43197F1F700C00000429898B19F7031
:1002500098B998B18295807F892B88B9409A419846
:10026000429A8FEF97E40197F1F700C0000042989F
:10027000089580E80E94D8000895CF93DF93EC01A1
:100280008881882331F021960E9414018991882366
:10029000D9F7DF91CF910895823079F0833018F447
:1002A0008130C9F405C0833069F08430A1F40FC0F7
:1002B000862F81580E94D8000895862F81540E946D
:1002C000D8000895862F8D560E94D8000895862F55
:1002D0008D520E94D80008950F931F93CF93DF9300
:1002E0008A01E901882311F0662319F40E9439017B
:1002F00002C00E944C01C530D10571F4C80160E113
:1003000077E20E946508CB01C09690930D0280931E
:100310000C020E94140103C0C430D105B9F4C80115
:1003200068EE73E00E946508CB0170930F02609342
:100330000E026AE070E00E946508C0969093170272
:10034000809316020E94140181E001C080E0C33056
:10035000D10511F08130B1F4C80164E670E00E946B
:100360006508CB0170930F0260930E026AE070E0A3
:100370000E946508C09690931302809312020E9417
:10038000140181E0C230D10511F08130B1F42AE0CE
:1003900030E0C801B9010E946508CB0170930F02DB
:1003A00060930E02B9010E946508C09690931102F5
:1003B000809310020E94140181E0C130D10511F038
:1003C000813061F4C8016AE070E00E946508C0965F
:1003D00090931502809314020E941401C630D10537
:1003E0001CF085E40E941401DF91CF911F910F91C1
:1003F00008953B9A439808950E94F901089586B1A3
:10040000886088B9089586B1877F88B90895F8947F
:100410000E94FC01789408950E9407020E94FF0147
:100420008FEF9FEFACE281509040A040E1F700C019
:1004300000000E9403028FEF9FEFACE281509040DA
:10044000A040E1F700C00000089587B1876F87B929
:1004500088B1807888B9089510BA11BA109207014E
:10046000109208010895EAE7F0E0108210927B00F4
:1004700080E280937C0080E880BF86E880830895D6
:10048000883018F098E090937B00877080628093AA
:100490007C00EAE7F0E0808180648083808184FFD3
:1004A000FDCF80917900EAE7F0E090819061908340
:1004B00010927B000895CF93DF93D82FC62F842FFF
:1004C0000E944002482F8D2F6C2F50E023E030E037
:1004D0000E946C01DF91CF910895259A2D9A08957D
:1004E00081B18F6081B982B1807F82B9EAE0F1E0A9
:1004F000808188618083EBE0F1E080818861808386
:100500000895E1E2F1E010828FEF8093250191E000
:1005100090932401109229018093280110922B01BD
:1005200080932A0110922D0180932C0189EA8093F7
:1005300020018BE080830895E1E8F0E010828CEFE9
:100540008093850081E08093840093E090938900FC
:100550008FEF8093880090938700809386008BEACA
:1005600080938000109282008CE0808308950E9426
:100570006D0208950E94700208950E942502089558
:100580000E942C02089582E082B9089581E082B928
:10059000089588E082B9089586E082B9089512B876
:1005A00008958093280160932A01089592B1907F65
:1005B0008F70982B92B90895F8940E94C0020E94FF
:1005C00033020E94810278940895F8940E94BA023E
:1005D0000E94BD020E94810278940895F8940E94BE
:1005E000B7020E949C027894089510928900682FA7
:1005F00070E080E090E00E944C072BE734E14EEE83
:100600005FE30E94B80620E030E04CE052E40E9434
:1006100054060E94200760938800089583E0809329
:1006200089008FEF809388000895CF930E94EE0297
:10063000C0E08C2F0E94F5028FEF9FE7A4E081506D
:100640009040A040E1F700C00000CF5FCD3289F7B5
:100650008FEF9FEFACE281509040A040E1F700C0E7
:1006600000000E940E03CF9108950E94EE028FEFCA
:100670009FE7A6E181509040A040E1F700C0000054
:100680000E940E030895682F70E080E090E00E94C1
:100690004C0720E030E040E451E40E94DE0720E017
:1006A00030E040E85BE30E94DE0720E030E048EC09
:1006B00052E40E94DE07462F572F682F792FCB0177
:1006C000BA010895682F70E080E090E00E944C0726
:1006D00020E030E040E451E40E94DE0720E030E01A
:1006E00040E85BE30E94DE07462F572F682F792FE3
:1006F000CB01BA0108952F923F924F925F926F9271
:100700007F928F929F92AF92BF92CF92DF92EF92A1
:10071000FF920F931F93CF93DF93CDB7DEB7C052F5
:10072000D1400FB6F894DEBF0FBECDBF0E94E502E8
:100730000E94DC027E010894E11CF11C0F2EF1E204
:10074000AF2EF1E0BF2EF02DAC0EBD1E67010E9452
:10075000C3028FEE97ECA2E081509040A040E1F7F9
:1007600000C00E94CF028FEF9FEFA1E18150904027
:10077000A040E1F700C000008AE00E9440020E9411
:100780004303D6016D937D938D939D936D010E94DC
:1007900020078B019C0182E061E0A80123E030E0AA
:1007A0000E946C0180E00E9440020E9462030E944D
:1007B00020078B019C0181E06DE0A80124E030E07E
:1007C0000E946C01CA14DB0411F68FEF9FEFACE2BC
:1007D00081509040A040E1F700C00000CC24DD240F
:1007E000772466245524442422243324D701BC9042
:1007F0001196AC90119712969C90129713968C902C
:10080000E4E0F0E0EE0EFF1E8B2D9A2DA92DB82D01
:10081000BC01CD01072D162D252D342DA9019801E0
:100820000E94DA0718162CF47B2C6A2C592C482CC1
:1008300016010894C11CD11CF8E4CF16D104B1F6FE
:10084000F101EE0FFF1FEE0FFF1FEC0FFD1F618187
:100850007281838194810E9420078B019C016B012E
:1008600082E061E0A80123E030E00E946C0181E0B9
:100870002816310471F1EE24FF24E3940E94C30290
:100880008AE69CE0A1E081509040A040E1F70000A2
:100890008AE00E9440020E9443030E9420078B01CD
:1008A0009C0182E065E0A80123E030E00E946C0139
:1008B0000894E11CF11C0E94CF028FEF9FEFA1E191
:1008C00081509040A040E1F700C00000E214F30422
:1008D000A9F682E065E0A60123E030E00E946C0109
:1008E00030920B0220920A02C05EDE4F0FB6F894DF
:1008F000DEBF0FBECDBFDF91CF911F910F91FF9053
:10090000EF90DF90CF90BF90AF909F908F907F90AF
:100910006F905F904F903F902F9008952F923F924D
:100920004F925F926F927F928F929F92AF92BF92FF
:10093000CF92DF92EF92FF920F931F93CF93DF93AB
:10094000CDB7DEB7C459D2400FB6F894DEBF0FBEA4
:10095000CDBF0E94EE023E010894611C711C630130
:10096000FF248F2D0E94F5028FEF9FEFA1E18150B0
:100970009040A040E1F700C000008AE00E944002E1
:100980000E9443034B015C01D6016D937D938D93CF
:100990009D936D0180E00E9440020E9462030E94CC
:1009A00020078B019C0181E06DE0A80124E030E08C
:1009B0000E946C01C501B4010E9420078B019C01BB
:1009C00082E069E0A80123E030E00E946C01F3942A
:1009D000B5EAFB1631F6AA24BB2422243324CC2406
:1009E000992455244424F301F0808180E280D3804F
:1009F00084E090E0680E791E8F2D982DAE2DBD2DD0
:100A0000BC01CD010C2D192D252D342DA9019801E6
:100A10000E94DA0718162CF41501CF2C982C5E2CA6
:100A20004D2C0894A11CB11C95EAA916B104D9F665
:100A3000F101EE0FFF1FEE0FFF1FEC0FFD1F618195
:100A40007281838194810E9420078B019C016B013C
:100A500082E069E0A80123E030E00E946C010E947E
:100A600035031214130424F5EE24FF248E2D0E9466
:100A7000F5028FEF9FEFA1E181509040A040E1F798
:100A800000C000008AE00E9440020E9443030E94CE
:100A900020078B019C0182E06DE0A80123E030E09B
:100AA0000E946C010894E11CF11CE214F304F1F6BD
:100AB00082E06DE0A60123E030E00E946C018FEF40
:100AC0009FEFACE281509040A040E1F700C00000F1
:100AD0000E940E03CC56DD4F0FB6F894DEBF0FBE5A
:100AE000CDBFDF91CF911F910F91FF90EF90DF90DD
:100AF000CF90BF90AF909F908F907F906F905F90BE
:100B00004F903F902F9008950E9415030E947B0301
:100B10000E9435030E948E048FEF9FEFADEEB2E08E
:100B200081509040A040B040D9F700C00000089527
:100B300010E00E94E5020E94DC020E9495000E94E3
:100B4000FD0083E00E944002C82F82E00E94400224
:100B5000082F81E00E944002D82F81E061E043E04D
:100B60000E945B0281E065E042E00E945B0281E05E
:100B700069E041E00E945B02003140F40E94CC0237
:100B800084E664E60E94D10281E001C0812FC13178
:100B900048F0882339F40E94CC0282E86EE10E947A
:100BA000D10281E0D13140F0882331F40E94CC029F
:100BB0008EE162E80E94D102013150F0C13140F073
:100BC000D13130F00E94CC02812F612F0E94D102DE
:100BD000202F30E04D2F50E0C901841B950B019769
:100BE0008A30910540F0CA01821B930B01978A302D
:100BF000910508F0A6CFD0E0C9018C1B9D0B019791
:100C00008A30910540F0CE01821B930B01978A3008
:100C1000910508F096CFCE01841B950B01978A3081
:100C2000910540F04C1B5D0B415050404A3051053E
:100C300008F087CF0E94CF028FEF9FE7A6E1815097
:100C40009040A040E1F700C000000E948405C091E0
:100C50000A02D0910B02DD23D4F00E94C6028FEE6F
:100C600097ECA2E081509040A040E1F700C00E94C4
:100C7000CF028FEF9FE7A4E081509040A040E1F7C2
:100C800000C0000021979FEFCF3FD90731F70E94A6
:100C9000CC028FEF9FE7A4E081509040A040E1F7A5
:100CA00000C0000046CF5058BB27AA270ED048C12D
:100CB00039D130F03ED120F031F49F3F11F41EF4D1
:100CC0002EC10EF4E095E7FB24C1E92F4AD180F351
:100CD000BA17620773078407950718F071F49EF539
:100CE00062C10EF4E0950B2EBA2FA02D0B01B901B5
:100CF00090010C01CA01A0011124FF27591B99F092
:100D0000593F50F4503E68F11A16F040A22F232F9D
:100D1000342F4427585FF3CF469537952795A795ED
:100D2000F0405395C9F77EF41F16BA0B620B730B94
:100D3000840BBAF09150A1F0FF0FBB1F661F771F05
:100D4000881FC2F70EC0BA0F621F731F841F48F4BA
:100D5000879577956795B795F7959E3F08F0B3CF40
:100D60009395880F08F09927EE0F9795879508952A
:100D70000CD0E6C0DED040F0D5D030F021F45F3F9B
:100D800019F0C7C0511110C1CAC0EBD098F3992314
:100D9000C9F35523B1F3951B550BBB27AA2762173F
:100DA0007307840738F09F5F5F4F220F331F441F84
:100DB000AA1FA9F333D00E2E3AF0E0E830D09150BC
:100DC0005040E695001CCAF729D0FE2F27D0660FA9
:100DD000771F881FBB1F261737074807AB07B0E8E8
:100DE00009F0BB0B802DBF01FF2793585F4F2AF0FE
:100DF0009E3F510568F08DC0D7C05F3FECF3983E31
:100E0000DCF3869577956795B795F7959F5FC9F75A
:100E1000880F911D9695879597F90895E1E0660FE3
:100E2000771F881FBB1F621773078407BA0720F05C
:100E3000621B730B840BBA0BEE1F88F7E0950895C5
:100E400098D088F09F5790F0B92F9927B751A0F00C
:100E5000D1F0660F771F881F991F1AF0BA95C9F74E
:100E600012C0B13081F09FD0B1E008959CC0672FCF
:100E7000782F8827B85F39F0B93FCCF386957795FE
:100E80006795B395D9F73EF49095809570956195E7
:100E90007F4F8F4F9F4F0895E89409C097FB3EF412
:100EA00090958095709561957F4F8F4F9F4F9923B7
:100EB000A9F0F92F96E9BB279395F6958795779535
:100EC0006795B795F111F8CFFAF4BB0F11F460FFF5
:100ED0001BC06F5F7F4F8F4F9F4F16C0882311F04D
:100EE00096E911C0772321F09EE8872F762F05C061
:100EF000662371F096E8862F70E060E02AF09A95FC
:100F0000660F771F881FDAF7880F9695879597F9F0
:100F1000089597F99F6780E870E060E008959FEF7B
:100F200080EC089500240A94161617061806090680
:100F3000089500240A94121613061406050608954F
:100F4000092E0394000C11F4882352F0BB0F40F4D7
:100F5000BF2B11F460FF04C06F5F7F4F8F4F9F4F17
:100F6000089557FD9058440F551F59F05F3F71F099
:100F70004795880F97FB991F61F09F3F79F0879500
:100F80000895121613061406551FF2CF4695F1DF89
:100F900008C0161617061806991FF1CF8695710519
:100FA000610508940895E894BB2766277727CB014D
:100FB00097F9089566D008F48FEF08950BD0C0CF4D
:100FC000B1DF28F0B6DF18F0952309F0A2CFA7CF44
:100FD0001124EACFC6DFA0F3959FD1F3950F50E01F
:100FE000551F629FF001729FBB27F00DB11D639FDB
:100FF000AA27F00DB11DAA1F649F6627B00DA11D81
:10100000661F829F2227B00DA11D621F739FB00D26
:10101000A11D621F839FA00D611D221F749F332796
:10102000A00D611D231F849F600D211D822F762F2F
:101030006A2F11249F5750408AF0E1F088234AF02C
:10104000EE0FFF1FBB1F661F771F881F9150504078
:10105000A9F79E3F510570F05CCFA6CF5F3FECF340
:10106000983EDCF3869577956795B795F795E79564
:101070009F5FC1F7FE2B880F911D9695879597F975
:101080000895990F0008550FAA0BE0E8FEEF161619
:101090001706E807F907C0F012161306E407F5076C
:1010A00098F0621B730B840B950B39F40A2661F0E0
:1010B000232B242B252B21F408950A2609F4A14083
:1010C000A6958FEF811D811D0895AA1BBB1B51E1C1
:1010D00007C0AA1FBB1FA617B70710F0A61BB70BA8
:1010E000881F991F5A95A9F780959095BC01CD014D
:0610F0000895F894FFCF03
:0A10F60090016666BA413333774279
:00000001FF
